:03000000020C9C53
:0C0C9C00787FE4F6D8FD758129020CE396
:100F8B004E6F6E652068756D616E0048756D616E94
:100F9B00004C6F67676564004E6F74204C6F67671A
:100FAB006564004F4E004F4646004C6967687400FD
:060FBB0054696D6573002E
:10104200020C000002120000020800000210000060
:08105200020E0000020A00007A
:1010AA00E4F589758A66758CFCD28CD2A9D2AF22F6
:05000600D288D2A822FF
:05000E00D28AD2AA22F3
:1009EE00120BEC120F52751420D2B7D2CCD2B31216
:1009FE0010AA12000612000E30B505E4F50CF50D26
:100A0E0020B526E511640145107006F510F511802C
:100A1E000BE51145107005F5107511017FF47E017F
:100A2E00121028750C00750D01E50B450A7002C2F7
:100A3E00B720B20F7BFF7A0F798B7D02E4FF120F86
:100A4E0011C2B730B217E50B6401450A7002D2B776
:100A5E007BFF7A0F79967D02E4FF120F11AE0EAF77
:100A6E000F7C007D0A120BB6AA06AB07751901752D
:100A7E001A02E4FD7F32120DA4AE0EAF0F7C007D84
:100A8E000A120BB6AA04AB05751901751A02E4FD1C
:100A9E007F3C120DA4E5116401451070117BFF7AA5
:100AAE000F799C7D04FF120F11E4F50AF50BE51189
:100ABE0045107012F50EF50F7BFF7A0F79A37D04AA
:100ACE00FF120F11D2CDE50B6401450A700D7BFFAD
:100ADE007A0F79AE7D067F32120F11E50B450A7043
:100AEE000D7BFF7A0F79B17D067F32120F117BFFDE
:100AFE007A0F79B57D06E4FF120F117BFF7A0F791D
:100B0E00BBE4FDFF120F117F327E00121028120F70
:040B1E0052020A066F
:03000B00020FC120
:100FC100C0E0C0D00513E51370020512B4E815E5C1
:100FD10012B40310E511640145107002B2CD75120F
:090FE10000751300D0D0D0E032FD
:0300030002107375
:10107300C0E0E511640145107008050FE50F70022B
:05108300050ED0E03273
:0300130002100ACE
:10100A00C0E0E50B6401450A7006F50AF50B800B92
:0E101A00E50B450A7005F50A750B01D0E032B2
:100016000000000000000000002F000000000700A4
:10002600070000147F147F1400242A7F2A1200621E
:1000360064081323003649552250000005030000CA
:1000460000001C224100000041221C000014083E52
:1000560008140008083E0808000000A06000000818
:10006600080808080000606000000020100804026C
:10007600003E5149453E0000427F4000004261512A
:100086004946002141454B31001814127F100027C4
:1000960045454539003C4A49493000017109050387
:1000A60000364949493600064949291E00003636B8
:1000B600000000005636000000081422410000141B
:1000C60014141414000041221408000201510906F8
:1000D60000324959513E007C1211127C007F494979
:1000E6004936003E41414122007F4141221C007FAA
:1000F60049494941007F09090901003E4149497AB8
:10010600007F0808087F0000417F41000020404131
:100116003F01007F08142241007F40404040007F9D
:10012600020C027F007F0408107F003E4141413EE1
:10013600007F09090906003E4151215E007F091929
:1001460029460046494949310001017F0101003F26
:100156004040403F001F2040201F003F4038403FA6
:10016600006314081463000708700807006151490A
:10017600454300007F41410000552A552A5500009D
:1001860041417F000004020102040040404040401B
:10019600000001020400002054545478007F4844B3
:1001A600443800384444442000384444487F0038EA
:1001B6005454541800087E0901020018A4A4A47C13
:1001C600007F080404780000447D400000408084DD
:1001D6007D00007F102844000000417F4000007C25
:1001E60004180478007C0804047800384444443831
:1001F60000FC242424180018242418FC007C08047D
:10020600040800485454542000043F444020003C55
:100216004040207C001C2040201C003C4030403CDC
:10022600004428102844001CA0A0A07C004464546C
:100236004C441414141414140000000000000000B0
:100246000000000000000000000000F800000000B0
:10025600000000333000000000100C06100C0600F1
:10026600000000000000000040C07840C078400058
:10027600043F04043F040400007088FC08300000BA
:10028600001820FF211E0000F008F000E018000012
:1002960000211C031E211E0000F0088870000000CB
:1002A6001E2123241927211010160E00000000001D
:1002B6000000000000000000000000E0180402003A
:1002C600000000071820400000020418E0000000AB
:1002D6000040201807000000404080F080404000A9
:1002E6000202010F01020200000000F000000000FF
:1002F6000101011F010101000000000000000000D3
:1003060080B0700000000000000000000000000047
:1003160000010101010101010000000000000000D0
:10032600003030000000000000000000806018046B
:10033600006018060100000000E010080810E00048
:10034600000F102020100F00001010F80000000011
:100356000020203F20200000007008080888700058
:1003660000302824222130000030088888483000D8
:100376000018202020110E000000C02010F80000F8
:1003860000070424243F240000F808888808080091
:100396000019212020110E0000E0108888180000A6
:1003A600000F112020110E0000380808C838080078
:1003B6000000003F000000000070880808887000F8
:1003C600001C222121221C0000E010080810E00079
:1003D6000000312222110F00000000C0C000000002
:1003E6000000003030000000000000800000000027
:1003F600000080600000000000008040201008001F
:1004060000010204081020004040404040404000E7
:1004160004040404040404000008102040800000C2
:100426000020100804020100007048080808F000C7
:100436000000003036010000C030C828E810E00097
:100446000718272423140B000000C038E000000022
:10045600203C23020227382008F88888887000008C
:10046600203F202020110E00C03008080808380060
:10047600071820202010080008F808080810E000D7
:10048600203F202020100F0008F88888E808100078
:10049600203F20202320180008F88888E80810004C
:1004A600203F200003000000C03008080838000084
:1004B60007182020221E020008F808000008F80885
:1004C600203F210101213F20000808F8080800000C
:1004D6000020203F2020000000000808F80808003F
:1004E600C08080807F00000008F888C028180800B7
:1004F600203F20012638200008F8080000000000F0
:10050600203F20202020300008F8F800F8F80800E6
:10051600203F003F003F200008F830C00008F808E0
:10052600203F200007183F00E01008080810E000F0
:100536000F10202020100F0008F808080808F00007
:10054600203F210101010000E01008080810E0002A
:100556000F18242438504F0008F8888888887000BF
:10056600203F2000030C302000708808080838005F
:100576000038202121221C00180808F80808180055
:100586000000203F2000000008F808000008F808D6
:10059600001F202020201F000878880000C8380887
:1005A600000007380E010000F80800F80008F800FF
:1005B600033C0700073C0300081868808068180899
:1005C60020302C03032C30200838C800C838080017
:1005D6000000203F2000000010080808C838080066
:1005E6002038262120201800000000FE020202000A
:1005F6000000007F40404000000C30C000000000BA
:10060600000000010638C00000020202FE000000E1
:10061600004040407F000000000004020202040087
:1006260000000000000000000000000000000000C4
:1006360080808080808080800002020400000000AC
:1006460000000000000000000000808080800000A4
:100656000019242222223F2008F800808000000092
:10066600003F112020110E00000000808080000055
:10067600000E112020201100000000808088F80064
:10068600000E112020103F20000080808080000096
:10069600001F222222221300008080F088888818FA
:1006A6000020203F20200000000080808080800005
:1006B600006B94949493600008F80080808000009A
:1006C600203F210000203F20008098980000000075
:1006D6000020203F202000000000008098980000A5
:1006E60000C08080807F000008F8000080808000C5
:1006F600203F24022D302000000808F800000000EA
:100706000020203F202000008080808080808000A4
:10071600203F20003F20003F808000808080000036
:10072600203F210000203F200000808080800000C4
:10073600001F202020201F008080008080000000F5
:1007460080FFA12020110E00000000808080800024
:10075600000E112020A0FF80808080008080800015
:1007660020203F2120000100000080808080800042
:100776000033242424241900008080E080800000B7
:100786000000001F20200000808000000080800004
:10079600001F202020103F20808080000080808065
:1007A60000010E30080601008080008000808080F5
:1007B6000F300C030C300F0000808000808080001A
:1007C6000020312E0E312000808080000080808045
:1007D60080818E70180601000080808080808000F5
:1007E6000021302C2221300000000000807C020213
:1007F60000000000003F404000000000FF00000035
:1008060000000000FF0000000002027C80000000E3
:100816000040403F000000000006010102020404FF
:1008260000000000000000000000F010101010FF93
:1008360010101010F0000000000000000000000082
:10084600000000000000000000000F04040404FF84
:10085600040404040F000000000000000000000073
:1008660000000000000000004040405F55555575EF
:100876005555555F40404000000000000000000054
:1008860000000000000000000040200F094989799F
:100896000909090F204000000000000000000000C8
:1008A600000000000000000000FE02424ACA4A4A58
:1008B600CA4A4A4202FE0000000000000000000092
:1008C600000000000000000000FF40504C43404084
:1008D6004F50505C40FF0000000000000000000088
:1008E60000000000000000000000F888888888FFEB
:1008F60088888888F80000000000000000000000DA
:10090600000000000000000000001F080808087F23
:10091600888888889F80F0000000000000000000A2
:10092600000000000000000080828282828282E253
:10093600A2928A86828080000000000000000000EB
:100946000000000000000000000000000040807F62
:100956000000000000000000000000000000000091
:1009660000000000000000002424A4FEA3220022B0
:10097600CC0000FF000000000000000000000000A6
:100986000000000000000000080601FF000104044A
:10099600040404FF02020200000000000000000040
:1009A6000000000000000000101010FF10900888E2
:1009B6008888FF8888880800000000000000000082
:1009C60000000000000000000444827F0180804097
:1009D600432C102846818000000000000000000023
:0809E600000000000000000009
:10102800EF4E60157D087C07ED1DAA0470011C4A6F
:0910380070F6EF1F70EA1E80E75C
:01104100228C
:100ECF00F583E5822CF582E43583F583E493FF7D8A
:010EDF000111
:100EE000ED6004D2848002C284C2C4E4FEEEC394E6
:100EF00008748094805015C287EF30E704D2868052
:100F000002C286D287EF25E0FF0E80E1D2C4D284F0
:010F100022BE
:100FEA00AC07ED24B0FFE4FD120EE0EC54F0C4545B
:100FFA000F4410FF120EE0EC540F4401FF020EE002
:10108800E4FD7F8D120EE07F14120EE07FAF020E9A
:01109800E077
:10109900E4FD7F8D120EE07F10120EE07FAE020E8E
:0110A900E066
:100F5200E4FCECC3940874809480502CEC24B0FF21
:100F6200E4FD120EE0E4FF120EE07F10120EE0E448
:100F7200FBEBC3948074809480500A7D01E4FF12DD
:080F82000EE00B80EC0C80CAAC
:010F8A002244
:060D2800AA07A905AF03B4
:100D2E00E4FCEF24E0FBEAD3947F748094804004CB
:100D3E00E4FA0909AF02AD01120FEAE4FCECC39428
:100D4E000874809480501D75F010EBA42CF582E48D
:100D5E0035F0F583E582243EF582E5833402120EEA
:100D6E00D90C80D9AF02E904FD120FEAE4FCECC302
:100D7E00940874809480501D75F010EBA42CF582AD
:100D8E00E435F0F583E5822446F582E583340212DC
:050D9E000ED90C80D904
:010DA300222D
:04105B008F1EA90536
:10105F007F017E00AD0119ED6009AD1E7C00120B02
:03106F004F80F1BE
:01107200225B
:080DA4008F158D168A178B18BC
:100DAC00E4F51DF51BE51BC39519505FC3E51995BB
:100DBC001B14FD7F0A12105BAC17AD18CFCDCFCE34
:100DCC00CCCE120B617C007D0A120B618D1CE51DD3
:100DDC007020E51914FFE51BC39F5016E51C700F1E
:100DEC00E51AC313851BF0A42515FF7B2080137512
:100DFC001D01E51AC313851BF0A42515FFE51C2462
:0B0E0C0030FBAD16120D28051B809A6C
:010E170022B8
:0A0F11008F158D168B178A188919A9
:100F1B00E4F51AAB17AA18A919851A827583001262
:100F2B000B22FB6021AD16AF15120D287408251589
:100F3B00F515D39478748094804007E4F515051665
:060F4B000516051A80CD19
:010F5100227D
:040E7A00AA07A90515
:100E7E00E4F529120FEAE4FCECC39410748094801C
:100E8E00501575F040EBA4242EF582E5F0340812CF
:100E9E000ECF05290C80E1AF02E904FD120FEAE442
:100EAE00FCECC3941074809480501575F040EBA444
:100EBE00244EF582E5F03408120ECF05290C80E1A0
:010ECE002201
:040E18008F1F8B217C
:100E1C00E4F526F527E5225407700BE5221313138E
:100E2C00541FF528800AE522131313541F04F528C8
:100E3C008D28E528C395225034AD28AF1F120FEA38
:100E4C00AC1FECC395215021AB23AA24A92505275F
:100E5C00E527AE267002052614F5828E83120B222E
:0D0E6C00FF7D01120EE00C80D9052880C525
:010E79002256
:100BEC00D2857F647E00121028C2857F647E00123D
:100BFC001028D285E4FD7FAE120EE0E4FF120EE069
:100C0C007F10120EE07F40120EE07F81120EE07F0B
:100C1C00CF120EE07FA1120EE07FC8120EE07FA66D
:100C2C00120EE07FA8120EE07F3F120EE07FD3126F
:100C3C000EE0E4FF120EE07FD5120EE07F80120E64
:100C4C00E07FD9120EE07FF1120EE07FDA120EE097
:100C5C007F12120EE07FDB120EE07F40120EE07F5F
:100C6C0020120EE07F02120EE07F8D120EE07F1438
:100C7C00120EE07FA4120EE07FA6120EE07FAF12E0
:100C8C000EE07FAF120EE0120F52E4FDFF020FEAEE
:100CA8000209EEE493A3F8E493A34003F68001F26B
:100CB80008DFF48029E493A3F85407240CC8C3334D
:100CC800C4540F4420C8834004F456800146F6DF1C
:100CD800E4800B0102040810204080901042E47E5A
:100CE800019360BCA3FF543F30E509541FFEE49311
:100CF800A360010ECF54C025E060A840B8E493A3D8
:100D0800FAE493A3F8E493A3C8C582C8CAC583CA02
:100D1800F0A3C8C582C8CAC583CADFE9DEE780BEBA
:01105A000095
:100B2200BB010CE58229F582E5833AF583E0225088
:100B320006E92582F8E622BBFE06E92582F8E222D2
:0D0B4200E58229F582E5833AF583E49322EC
:100B4F00EF8DF0A4A8F0CF8CF0A428CE8DF0A42EBA
:020B5F00FE2274
:100B6100BC000BBE0029EF8DF084FFADF022E4CC78
:100B7100F875F008EF2FFFEE33FEEC33FCEE9DEC41
:100B8100984005FCEE9DFE0FD5F0E9E4CEFD22ED87
:100B9100F8F5F0EE8420D21CFEADF075F008EF2FD1
:100BA100FFED33FD4007985006D5F0F222C398FDC2
:050BB1000FD5F0EA225F
:100BB600C2D5EC30E709B2D5E4C39DFDE49CFCEE5A
:100BC60030E715B2D5E4C39FFFE49EFE120B61C366
:100BD600E49DFDE49CFC8003120B6130D507C3E461
:060BE6009FFFE49EFE22C9
:00000001FF
